{
  "contractName": "Bank",
  "abi": [
    {
      "inputs": [
        {
          "internalType": "address",
          "name": "",
          "type": "address"
        }
      ],
      "name": "balances",
      "outputs": [
        {
          "internalType": "uint256",
          "name": "",
          "type": "uint256"
        }
      ],
      "stateMutability": "view",
      "type": "function"
    },
    {
      "inputs": [],
      "name": "deposit",
      "outputs": [],
      "stateMutability": "payable",
      "type": "function"
    }
  ],
  "bytecode": "0x608060405234801561000f575f80fd5b5061022a8061001d5f395ff3fe608060405260043610610028575f3560e01c806327e235e31461002c578063d0e30db014610068575b5f80fd5b348015610037575f80fd5b50610052600480360381019061004d9190610138565b610072565b60405161005f919061017b565b60405180910390f35b610070610086565b005b5f602052805f5260405f205f915090505481565b345f803373ffffffffffffffffffffffffffffffffffffffff1673ffffffffffffffffffffffffffffffffffffffff1681526020019081526020015f205f8282546100d191906101c1565b92505081905550565b5f80fd5b5f73ffffffffffffffffffffffffffffffffffffffff82169050919050565b5f610107826100de565b9050919050565b610117816100fd565b8114610121575f80fd5b50565b5f813590506101328161010e565b92915050565b5f6020828403121561014d5761014c6100da565b5b5f61015a84828501610124565b91505092915050565b5f819050919050565b61017581610163565b82525050565b5f60208201905061018e5f83018461016c565b92915050565b7f4e487b71000000000000000000000000000000000000000000000000000000005f52601160045260245ffd5b5f6101cb82610163565b91506101d683610163565b92508282019050808211156101ee576101ed610194565b5b9291505056fea2646970667358221220245f55d8d95bb805328c0a3293c272b3b5bbe9e3e98674f77ec1c431f409fe3f64736f6c63430008150033",
  "immutableReferences": {},
  "source": "pragma solidity ^0.8.21;\r\n\r\ncontract Bank {\r\n    mapping(address => uint256) public balances;\r\n\r\n    function deposit() public payable {\r\n        // msg.sender is the address of the user calling this function\r\n        // msg.value is the amount of Ether sent in the transaction\r\n        balances[msg.sender] += msg.value;\r\n    }\r\n}\r\n",
  "sourcePath": "C:\\xampp\\htdocs\\CS4301Project\\myproject\\contracts\\Bank.sol",
  "compiler": {
    "name": "solc",
    "version": "0.8.21+commit.d9974bed.Emscripten.clang"
  },
  "schemaVersion": "3.4.16",
  "updatedAt": "2024-02-19T19:42:04.045Z",
  "devdoc": {
    "kind": "dev",
    "methods": {},
    "version": 1
  },
  "userdoc": {
    "kind": "user",
    "methods": {},
    "version": 1
  }
}