{
  "contractName": "Bank",
  "abi": [
    {
      "inputs": [],
      "stateMutability": "nonpayable",
      "type": "constructor"
    },
    {
      "inputs": [
        {
          "internalType": "uint256",
          "name": "amount",
          "type": "uint256"
        }
      ],
      "name": "deposit",
      "outputs": [],
      "stateMutability": "payable",
      "type": "function",
      "payable": true
    },
    {
      "inputs": [
        {
          "internalType": "uint256",
          "name": "amount",
          "type": "uint256"
        },
        {
          "internalType": "address",
          "name": "recipient",
          "type": "address"
        }
      ],
      "name": "transfer",
      "outputs": [],
      "stateMutability": "nonpayable",
      "type": "function"
    },
    {
      "inputs": [
        {
          "internalType": "uint256",
          "name": "amount",
          "type": "uint256"
        }
      ],
      "name": "withdraw",
      "outputs": [],
      "stateMutability": "payable",
      "type": "function",
      "payable": true
    },
    {
      "inputs": [],
      "name": "getBalance",
      "outputs": [
        {
          "internalType": "uint256",
          "name": "",
          "type": "uint256"
        }
      ],
      "stateMutability": "view",
      "type": "function",
      "constant": true
    }
  ],
  "bytecode": "0x608060405234801561001057600080fd5b506103e86000803373ffffffffffffffffffffffffffffffffffffffff1673ffffffffffffffffffffffffffffffffffffffff168152602001908152602001600020819055506107ae806100656000396000f3fe60806040526004361061003f5760003560e01c806312065fe0146100445780632e1a7d4d1461006f578063b6b55f251461008b578063b7760c8f146100a7575b600080fd5b34801561005057600080fd5b506100596100d0565b6040516100669190610407565b60405180910390f35b61008960048036038101906100849190610453565b610116565b005b6100a560048036038101906100a09190610453565b610232565b005b3480156100b357600080fd5b506100ce60048036038101906100c991906104de565b6102cd565b005b60008060003373ffffffffffffffffffffffffffffffffffffffff1673ffffffffffffffffffffffffffffffffffffffff16815260200190815260200160002054905090565b60008111610159576040517f08c379a0000000000000000000000000000000000000000000000000000000008152600401610150906105a1565b60405180910390fd5b806000803373ffffffffffffffffffffffffffffffffffffffff1673ffffffffffffffffffffffffffffffffffffffff1681526020019081526020016000205410156101da576040517f08c379a00000000000000000000000000000000000000000000000000000000081526004016101d19061060d565b60405180910390fd5b806000803373ffffffffffffffffffffffffffffffffffffffff1673ffffffffffffffffffffffffffffffffffffffff1681526020019081526020016000206000828254610228919061065c565b9250508190555050565b60008111610275576040517f08c379a000000000000000000000000000000000000000000000000000000000815260040161026c90610702565b60405180910390fd5b806000803373ffffffffffffffffffffffffffffffffffffffff1673ffffffffffffffffffffffffffffffffffffffff16815260200190815260200160002060008282546102c39190610722565b9250508190555050565b816000803373ffffffffffffffffffffffffffffffffffffffff1673ffffffffffffffffffffffffffffffffffffffff16815260200190815260200160002054101561034e576040517f08c379a00000000000000000000000000000000000000000000000000000000081526004016103459061060d565b60405180910390fd5b816000803373ffffffffffffffffffffffffffffffffffffffff1673ffffffffffffffffffffffffffffffffffffffff168152602001908152602001600020600082825461039c919061065c565b925050819055508073ffffffffffffffffffffffffffffffffffffffff166108fc839081150290604051600060405180830381858888f193505050501580156103e9573d6000803e3d6000fd5b505050565b6000819050919050565b610401816103ee565b82525050565b600060208201905061041c60008301846103f8565b92915050565b600080fd5b610430816103ee565b811461043b57600080fd5b50565b60008135905061044d81610427565b92915050565b60006020828403121561046957610468610422565b5b60006104778482850161043e565b91505092915050565b600073ffffffffffffffffffffffffffffffffffffffff82169050919050565b60006104ab82610480565b9050919050565b6104bb816104a0565b81146104c657600080fd5b50565b6000813590506104d8816104b2565b92915050565b600080604083850312156104f5576104f4610422565b5b60006105038582860161043e565b9250506020610514858286016104c9565b9150509250929050565b600082825260208201905092915050565b7f5769746864726177616c20616d6f756e74206d7573742062652067726561746560008201527f72207468616e2030000000000000000000000000000000000000000000000000602082015250565b600061058b60288361051e565b91506105968261052f565b604082019050919050565b600060208201905081810360008301526105ba8161057e565b9050919050565b7f496e73756666696369656e742062616c616e6365000000000000000000000000600082015250565b60006105f760148361051e565b9150610602826105c1565b602082019050919050565b60006020820190508181036000830152610626816105ea565b9050919050565b7f4e487b7100000000000000000000000000000000000000000000000000000000600052601160045260246000fd5b6000610667826103ee565b9150610672836103ee565b9250828210156106855761068461062d565b5b828203905092915050565b7f4465706f73697420616d6f756e74206d7573742062652067726561746572207460008201527f68616e2030000000000000000000000000000000000000000000000000000000602082015250565b60006106ec60258361051e565b91506106f782610690565b604082019050919050565b6000602082019050818103600083015261071b816106df565b9050919050565b600061072d826103ee565b9150610738836103ee565b9250827fffffffffffffffffffffffffffffffffffffffffffffffffffffffffffffffff0382111561076d5761076c61062d565b5b82820190509291505056fea264697066735822122035f194a2fafb356325afe877a98b9ff3d44bd7c8a72fca28276b70ab398a324564736f6c634300080d0033",
  "immutableReferences": {},
  "source": "// SPDX-License-Identifier: MIT\npragma solidity ^0.8.0;\n\ncontract Bank {\n    mapping(address => uint256) private balance;\n\n    constructor() {\n        // Perform initialization if needed\n        // For example, you can set initial balances for specific addresses\n        balance[msg.sender] = 1000; // Initialize the balance of the contract deployer\n    }\n\n    function deposit(uint256 amount) public payable {\n        require(amount > 0, \"Deposit amount must be greater than 0\");\n        balance[msg.sender] += amount;\n    }\n\n    function transfer(uint256 amount, address recipient) public {\n        require(balance[msg.sender] >= amount, \"Insufficient balance\");\n        balance[msg.sender] -= amount;\n        payable(recipient).transfer(amount);\n    }\n\n    function withdraw(uint256 amount) public payable {\n        require(amount > 0, \"Withdrawal amount must be greater than 0\");\n        require(balance[msg.sender] >= amount, \"Insufficient balance\");\n\n        balance[msg.sender] -= amount;\n    }\n\n    function getBalance() public view returns (uint256) {\n        return balance[msg.sender];\n    }\n}\n",
  "sourcePath": "/Users/jeremynguyen/Documents/GitHub/CS4301Project/truffle/contracts/Bank.sol",
  "compiler": {
    "name": "solc",
    "version": "0.8.13+commit.abaa5c0e.Emscripten.clang"
  },
  "schemaVersion": "3.4.16",
  "updatedAt": "2024-02-20T23:41:19.442Z",
  "networkType": "ethereum",
  "devdoc": {
    "kind": "dev",
    "methods": {},
    "version": 1
  },
  "userdoc": {
    "kind": "user",
    "methods": {},
    "version": 1
  }
}